:10000000C2C00000DBC00000D9C00000D7C00000A3
:10001000D5C00000D3C00000D1C00000CFC0000098
:10002000CDC00000CBC00000F4C40000C7C0000079
:10003000C5C00000C3C00000C1C00000BFC00000B8
:10004000BDC00000BBC00000B9C00000B7C00000C8
:10005000B5C00000B3C00000B1C00000AFC00000D8
:10006000ADC00000ABC00000A9C00000A7C00000E8
:10007000A5C00000A3C00000A1C000009FC00000F8
:100080009DC000009BC0000099C0000097C0000008
:1000900095C0000093C0000091C000008FC0000018
:1000A0008DC000008BC0000089C0000024035000F8
:1000B0004F004B004B0045004E00200043004F0016
:1000C0004E00540052004F004C004C0045005200BE
:1000D00000001C0348004F0052004900200043006C
:1000E0004F002E002C004C00540044002E00000055
:1000F000040309040902290001010080FA0904002F
:10010000000203000000092111010001225600072E
:1001100005020340000507058103400005120100A8
:1001200002000000400D0F920000010102000105D5
:10013000010905A10115002501350045017501954D
:1001400010050919012910810205012507463B0107
:100150007504950165140939814265009501810195
:1001600026FF0046FF0009300931093209357508BC
:10017000950481020600FF0920950181020A2126CB
:1001800095089102C00011241FBECFEFDAE0DEBF58
:10019000CDBF11E0A0E0B1E0E2E9FEE002C00590D1
:1001A0000D92AC34B107D9F721E0ACE4B1E001C065
:1001B0001D92A037B207E1F7ACD169C621CF84B751
:1001C000877F84BF0FB6F894A895809160008861FE
:1001D00080936000109260000FBE80E890E00FB640
:1001E000F89480936100909361000FBEF5C3089569
:1001F000089542E360EC82E02DD342E361EC81E0BC
:1002000029C30895DC0198E0FD01892F11928A9598
:10021000E9F780E813968C93139714968C931497B0
:1002200015968C93159716968C93169712969C9309
:1002300012978091580190915901181619068CF463
:1002400088E0EBE5F1E001900D928A95E1F780916D
:100250005801909159010197909359018093580149
:100260001AC080915A01823011F178F48823D9F0B4
:10027000813091F088E0FD01ABE5B1E001900D9295
:100280008A95E1F782E090E0E7CF843009F4F7C087
:1002900080F0853079F70895109251011092500145
:1002A00011961C921E9282E080935A01E3CF83E064
:1002B000FBCF8091500190915101FC01EE0FFF1F87
:1002C000E80FF91FE050FF4F8081893009F4C8C062
:1002D00008F065C0843009F49CC008F050C081303B
:1002E00009F48DC008F483C0823009F484C08330DF
:1002F00009F48AC020914E0130914F012F5F3F4F8A
:1003000030934F0120934E01809150019091510103
:10031000FC01EE0FFF1FE80FF91FE050FF4F418176
:1003200052814217530748F40196909351018093EC
:10033000500110924F0110924E0180915001909106
:10034000510149970CF496CF87E090E090935101CA
:100350008093500110924F0110924E0182E08093E1
:100360005A0180E813968C93139714968C931497E4
:1003700015968C93159716968C9316977BCF86308F
:1003800009F44BC008F44EC0873009F450C08830DF
:1003900009F0B0CF8D919C91119788604EC08E303E
:1003A00009F468C080F48B3009F455C008F44EC0DD
:1003B0008C3009F45AC08D3009F09CCF8D919C91FE
:1003C000119780623AC08131A1F138F48F3009F081
:1003D00091CF14961C921497F1CF823191F1833111
:1003E00009F088CF8D919C911197806326C0149657
:1003F0001C9214977FCF13961C9213977BCF8FEF8D
:1004000014968C93149776CF8FEF13968C93139743
:1004100071CF16961C9216976DCF8EE615968C931B
:10042000159768CF8FEF16968C93169763CF8FEF43
:10043000F5CF8D919C911197926011969C938E931C
:1004400059CF8D919C9111979160F7CF8D919C918F
:1004500011978460F2CF8D919C9111978260EDCFBE
:100460008D919C9111978160E8CF8D919C9111970E
:100470008061E3CF8D919C9111978068DECF85E0FC
:1004800013CFCF93DF93CDB7DEB728970FB6F8948D
:10049000DEBF0FBECDBF80916701843089F582E059
:1004A0008093E9008091E80082FF12C08091E8000B
:1004B00085FF09C050E040E067E070E0CE010196A2
:1004C000BCD08111F7CF8091E8008B778093E80052
:1004D00081E08093E9008091E80080FF11C0CE01A7
:1004E000019690DE50E040E068E070E0CE010196B9
:1004F00056D08111F7CF8091E8008E778093E80085
:1005000028960FB6F894DEBF0FBECDBFDF91CF9116
:10051000089555DE7894B5DF9FD4FDCF292F33277A
:100520002330310521F158F42130310599F0223082
:100530003105C1F090E080E030E020E00FC02132D2
:10054000310541F122323105A9F786E590E02FE22D
:1005500031E004C082E190E02DE131E0FA01318325
:100560002083089589E290E024EF30E0F7CF9927C7
:100570008130910561F028F00297E1F6ECEAF0E0B5
:1005800002C0E0EFF0E0849190E09F01E7CFE2ED60
:10059000F0E0F9CF89E090E026E031E0DFCFAF92E4
:1005A000BF92CF92DF92FF920F931F93CF93DF936F
:1005B0006C01EB018A01A1D1F82E811124C0011533
:1005C000110539F0F80180819181C81BD90BC80E43
:1005D000D91EB12CA12C2097B1F08091E80085FDA7
:1005E00022C08091E8008E778093E80035D4011511
:1005F0001105A1F0F80180819181A80EB91EB18288
:10060000A08285E0F82E8F2DDF91CF911F910F9161
:10061000FF90DF90CF90BF90AF9008956ED1882368
:10062000D1F2F82EF0CFF60181916F018093F100A5
:100630002197FFEFAF1ABF0ACECFAF92BF92CF92F2
:10064000DF92FF920F931F93CF93DF936C01EB0127
:100650008A0153D1F82E811124C00115110539F0FA
:10066000F80180819181C81BD90BC80ED91EB12C0D
:10067000A12C2097B1F08091E80085FD22C08091E7
:10068000E8008B778093E800E7D301151105A1F00E
:10069000F80180819181A80EB91EB182A08285E007
:1006A000F82E8F2DDF91CF911F910F91FF90DF904A
:1006B000CF90BF90AF90089520D18823D1F2F82E2B
:1006C000F0CF8091F100F60181936F012197FFEF48
:1006D000AF1ABF0ACECFFC0180916E0190916F01DD
:1006E00086179707A0F06115710529F49091E8002D
:1006F0009E779093E80090E06115710551F4911197
:1007000008C08091E80082FF35C080E00895BC01F8
:10071000F2CF809167018823C9F18530C9F18091BA
:10072000E80083FD31C08091E80082FDEACF80912E
:10073000E80080FFE1CF2091F3008091F200322F9A
:10074000282F6115710519F02034310558F091E01A
:100750002034310509F090E02091E8002E772093B5
:10076000E800CACF81918093F100615071092F5F39
:100770003F4FE7CF80916701882341F0853041F0FA
:100780008091E80083FFBDCF81E0089582E0089565
:1007900083E00895FC0180916E0190916F018617AE
:1007A0009707A0F06115710529F48091E8008E7714
:1007B0008093E80090E06115710551F4911108C033
:1007C0008091E80082FF36C080E00895BC01F2CF3E
:1007D000809167018823D1F18530D1F18091E800C3
:1007E00083FD32C08091E80082FDEACF8091E8006D
:1007F00080FFE1CF2091F3008091F200322F282F6B
:100800006115710519F02034310558F091E020345C
:10081000310509F090E08091E8008E778093E80040
:10082000CACF84918093F1003196615071092F5F96
:100830003F4FE6CF80916701882341F0853041F03A
:100840008091E80083FFBCCF81E0089582E00895A5
:1008500083E00895982F973028F08F708093E900F7
:1008600081E008959093E900242F762F50E09817A7
:1008700031F07091EC002091ED005091F00021FDDD
:1008800002C09F5FE8CF3091EB003E7F3093EB00DA
:100890003091ED003D7F3093ED003091EB00316001
:1008A0003093EB007093EC002093ED005093F00038
:1008B0002091EE0027FDE5CF80E00895809168014A
:1008C00087FF13C08091E80082FF06C08091E80096
:1008D0008B778093E80004C0809167018111F2CF8B
:1008E0000895809167018823D9F38091E80080FF03
:1008F000F8CF8091E8008E77ECCF2091E400309122
:10090000E50085E69091EC0090FF06C09091E8002C
:1009100090FF06C080E008959091E80092FDFACF24
:1009200090916701992391F0953091F09091EB00AF
:1009300095FD10C04091E4005091E5002417350763
:1009400009F381509A01F1F684E0089582E0089558
:1009500083E0089581E008950F931F93CF93DF9371
:100960004BD052D0C8EDD0E088818F7788838881C2
:100970008068888388818F7D888319BC1092670185
:1009800010926301109265011092640100EE10E074
:10099000F80180818B7F808388818160888342E336
:1009A00060E080E057DFE1EEF0E080818E7F8083C1
:1009B000E2EEF0E0808181608083808188608083C6
:1009C000F80180818E7F8083888180618883DF91B8
:1009D000CF911F910F910895E8EDF0E080818F7E17
:1009E0008083E7EDF0E080818160808384E082BFD6
:1009F00081E080936601B0CFE8EDF0E080818E7FEA
:100A000080831092E20008951092DA001092E100C3
:100A100008951F920F920FB60F9211242F933F93B8
:100A20004F935F936F937F938F939F93AF93BF93F6
:100A3000EF93FF938091E10082FF0AC08091E20072
:100A400082FF06C08091E1008B7F8093E10003D29A
:100A50008091DA0080FF18C08091D80080FF14C018
:100A60008091DA008E7F8093DA008091D90080FF38
:100A70008AC080E189BD82E189BD09B400FEFDCF55
:100A800081E080936701B3DB8091E10080FF18C0B3
:100A90008091E20080FF14C08091E2008E7F8093FD
:100AA000E2008091E20080618093E2008091D800B2
:100AB00080628093D80019BC85E080936701CBD118
:100AC0008091E10084FF28C08091E20084FF24C06F
:100AD00080E189BD82E189BD09B400FEFDCF80912E
:100AE000D8008F7D8093D8008091E1008F7E809325
:100AF000E1008091E2008F7E8093E2008091E2002D
:100B000081608093E20080916301882309F440C0F2
:100B100084E0809367019FD18091E10083FF22C030
:100B20008091E20083FF1EC08091E100877F809367
:100B3000E10082E080936701109263018091E100FF
:100B40008E7F8093E1008091E2008E7F8093E200AF
:100B50008091E20080618093E20042E360E080E007
:100B600079DE79D1FF91EF91BF91AF919F918F91F4
:100B70007F916F915F914F913F912F910F900FBE99
:100B80000F901F90189519BC1092670131DB7CCF34
:100B90008091E30087FD02C081E0BBCF83E0B9CF45
:100BA0001F93CF93DF93CDB7DEB7AA970FB6F89414
:100BB000DEBF0FBECDBFE8E6F1E08091F10081938A
:100BC00021E0E037F207C9F71CDB8091E80083FFE2
:100BD00010C08091680190916901953009F4D8C0E6
:100BE00000F5913009F48BC008F461C0933009F42A
:100BF00086C08091E80083FF0AC08091E800877F6B
:100C00008093E8008091EB0080628093EB00AA96CD
:100C10000FB6F894DEBF0FBECDBFDF91CF911F910D
:100C20000895983009F4ECC0993009F4F6C0963074
:100C300001F780588230E8F680916A0190916B014B
:100C40008C3D23E0920709F0C6C083E08A838AE2E4
:100C500089834FB7F894DE01139620E03EE051E21D
:100C6000E32FF0E050935700E49120FF03C0E2959A
:100C7000EF703F5FEF708E2F90E0EA3008F4A9C06C
:100C8000C7968D939D932F5F243151F74FBF80916D
:100C9000E800877F8093E8006AE270E0CE01019669
:100CA0001ADD8091E8008B778093E800A2CF80382E
:100CB00099F0823809F09DCF80916C018F70873058
:100CC00008F097CF8093E9008091EB0085FB88279F
:100CD00080F91092E90006C080916401909165014D
:100CE000911182609091E800977F9093E800809343
:100CF000F1001092F1008091E8008E7732C0282F29
:100D00002D7F09F076CF8823E9F0823009F071CF8A
:100D100080916A01811120C080916C018F702FEF4A
:100D2000280F263008F065CF8093E9002091EB0072
:100D300020FF12C09330C9F48091EB008062809351
:100D4000EB000AC080916A01813009F052CF9330E4
:100D500009F080E0809365011092E9008091E8003D
:100D6000877F8093E800AADD44CF9091EB009061EB
:100D70009093EB0021E030E001C0220F8A95EAF762
:100D80002093EA001092EA008091EB008860D7CFB0
:100D900081112FCF10916A011F778091E300807835
:100DA000812B8093E3008091E800877F8093E800A7
:100DB00085DD8091E80080FFFCCF8091E3008068B2
:100DC0008093E30083E0111101C082E0809367010A
:100DD00010CFC09656CF60916C0170916D01AE013D
:100DE0004F5F5F4F9BDBBC01892B09F402CF9091D1
:100DF000E800977F9093E80089819A81CBDC51CFFE
:100E0000803809F0F6CE8091E800877F8093E80073
:100E1000809163018093F1006ECF8111EACE9091B1
:100E20006A01923008F0E5CE8091E800877F8093D8
:100E3000E8009093630142DD80916301882329F0EB
:100E400084E080936701D5D9D4CE8091E30087FDFB
:100E5000F7CF81E0F6CF0895CF9380916701882383
:100E600091F0C091E900CF708091EC0080FD0DC041
:100E700080E0C82B1092E9008091E80083FD90DEAD
:100E8000CF70C093E900CF91089580E8F2CFF89435
:020E9000FFCF92
:100E920010FA001305001064001305001064000A24
:100EA20005001032000805001064000A05001064F5
:100EB200000A050010F4010A0500106400090A0086
:100EC20010640000FA001064000A050010640006B5
:0C0ED20032001064000E780010200300B5
:00000001FF
